:020000040800F2
:10000000005000204D150008D5140008D714000832
:10001000D9140008DB140008DD14000800000000FB
:10002000000000000000000000000000DF140008D5
:10003000E114000800000000E3140008E5140008C3
:1000400095150008951500089515000895150008E8
:1000500095150008951500089515000895150008D8
:1000600095150008951500089515000895150008C8
:1000700095150008951500089515000895150008B8
:1000800095150008951500089515000895150008A8
:100090009515000895150008951500089515000898
:1000A0009515000895150008951500089515000888
:1000B0009515000895150008951500089515000878
:1000C0009515000895150008951500089515000868
:1000D0009515000895150008F514000895150008F9
:1000E00095150008951500089515000800000000FA
:1000F0000000000000000000000000000000000000
:0C01000000000000000000005FF808F1A3
:10010C0010B5054C237833B9044B13B10448AFF345
:10011C0000800123237010BD0C00002000000000A3
:10012C00E015000808B5034B1BB103490348AFF3B6
:10013C00008008BD0000000010000020E015000841
:10014C0038B50E4B054618784FF47A73B3FBF0F3C1
:10015C000B4A1068B0FBF3F000F0B2F9044658B942
:10016C000F2D09D8024629464FF0FF3000F068F9F0
:10017C00044B20461D6038BD012038BD0000002016
:10018C000800002004000020074A08B5136803206B
:10019C0043F01003136000F041F90020FFF7D0FF8B
:1001AC0001F0E8F8002008BD00200240034A044B8F
:1001BC0011681B780B441360704700BF28000020A7
:1001CC0000000020014B1868704700BF2800002079
:1001DC00002373B5019390F82430012B74D00123C4
:1001EC004D6880F82430062D02684FEA85030C68B0
:1001FC0025D82B441F25566B053B9D4026EA05054B
:10020C0004FA03F32B435363092C4FEA44038D6820
:10021C002FD907262344D1681E3B9E4021EA0601B4
:10022C0005FA03F30B43D360A4F11003012B2BD974
:10023C000023002280F82420184602B070BD0C2D3B
:10024C000BD82B441F25166B233B9D4026EA050536
:10025C0004FA03F32B431363D6E72B441F25D66A0A
:10026C00413B9D4026EA050504FA03F32B43D36278
:10027C00CAE70726116923449E4021EA060105FAC4
:10028C0003F30B431361CFE7104B9A4216D19368DB
:10029C001B02CDD49368102C43F400039360C7D198
:1002AC000B4B0C4A1B68B3FBF2F20A23534301932A
:1002BC00019B002BBCD0019B013BF8E7836A43F008
:1002CC00200383620123B4E70223B5E70024014035
:1002DC000800002040420F0038B5036804469A68B5
:1002EC00D20701D4002038BD9A6822F001029A602E
:1002FC00FFF768FF054623689B68DB07F2D5FFF71D
:10030C0061FF401B0228F6D9A36A012043F01003B9
:10031C00A362E36A43F00103E36238BD70B504469F
:10032C00002871D0836A23B9C36280F8243001F0AD
:10033C006FF82046FFF7D0FFA36A13F0100FA36AE3
:10034C0064D1002862D1E16923F48853626823F0F8
:10035C00020343F002030A43A168A362E368B1F508
:10036C00807F42EA430238D0012914BF06464FF47D
:10037C0080766569012D07D1002B30D1A369013B33
:10038C0046EA433545F400662368B1F5807F5D6825
:10039C0025F4694545EA06055D609E681D4D05EA34
:1003AC00060545EA02059D6001D0012920D121698D
:1003BC0001390905DD6A25F470052943D96299686C
:1003CC00154B0B409A4215D10023E362A36A23F02C
:1003DC00030343F00103A36270BD0E46C9E7A36A91
:1003EC0043F02003A362E36A43F00103E362CBE72B
:1003FC000021DFE7A36A23F0120343F01003A3628A
:10040C00E36A43F00103E362012070BD43F0100383
:10041C00A362F9E7FDF7E1FFFE0E1FFF074A00029A
:10042C00D36800F4E06023F4E0631B041B0C43F07E
:10043C00BF6343F400330343D360704700ED00E027
:10044C00174B30B5DC68C4F30224C4F10703251D37
:10045C00042B28BF0423062D4FF0010598BF002460
:10046C0005FA03F303F1FF3388BF033C1940A140A5
:10047C0005FA04F4013C2240002842EA01024FEA4A
:10048C000212AFBF00F16040064B00F00F00D2B279
:10049C00A5BFD2B200F561401A5480F8002330BDDC
:1004AC0000ED00E014ED00E00123420900F01F0014
:1004BC0003FA00F0014B43F82200704700E100E022
:1004CC000138B0F1807F0AD2F021064B064A586001
:1004DC0082F823100020072298601A6070470120D0
:1004EC00704700BF10E000E000ED00E0044B042872
:1004FC001A680CBF42F0040222F004021A60704722
:10050C0010E000E0704708B5FFF7FCFF08BD0000E5
:10051C0090F8213010B5022B03D004238363012003
:10052C0010BD03681A6822F00E021A601A6822F0D5
:10053C0001021A60184A93421FD0143293421ED003
:10054C00143293421DD0143293421DD01432934274
:10055C001DD0143293420CBF4FF480134FF08073B4
:10056C000E4A00245360012380F82130436B80F83D
:10057C0020407BB19847204610BD0123F0E71023A3
:10058C00EEE74FF48073EBE74FF48053E8E74FF45A
:10059C008033E5E7184610BD080002400000024019
:1005AC002DE9F74F00221646654BDFF8A4E1DFF882
:1005BC00A4C14FF001080C6808FA06F808EA040414
:1005CC00A0457FD14D68122D00F0AF8000F28880DD
:1005DC00022D00F0A7807CD8002D00F08E80012D1C
:1005EC0000F09E804FF00F09FF2C93BF824606F15E
:1005FC008045083DD0F800B092BFB500D0F804B0EB
:10060C00AD0009FA05F82BEA080802FA05F588BFCF
:10061C0000F1040A48EA0505CAF80050D1F804A014
:10062C001AF0805F4ED0474D464FAD6926F0030857
:10063C0045F00105BD61BD6908F1804805F0010573
:10064C00019508F5803806F0030B019D4FEA8B0BE2
:10065C00D8F8085009FA0BF925EA09093A4DA842CD
:10066C0068D005F58065A84266D005F58065A8427E
:10067C0064D005F58065A8420CBF0325042505FA56
:10068C000BF545EA0905C8F808501D681AF4803FB7
:10069C0014BF2543A5431D605D681AF4003F14BFC9
:1006AC002543A5435D609D681AF4801F14BF254344
:1006BC00A5439D60DD681AF4001F14BF2C4325EA86
:1006CC000404DC600136102E7FF473AF03B0BDE878
:1006DC00F08F032D22D0112D84D1CA68043281E70A
:1006EC001A4FBD4209D012D8DFF86C904D4504D09A
:1006FC0009F580394D457FF475AF8A68C2B1012A7E
:10070C000CBFC0F81080C0F8148008226AE7754549
:10071C00F3D06545F1D0DFF84490EBE7002261E7B8
:10072C00CA685FE7CA6808325CE7CA680C3259E7E6
:10073C00042257E70025A2E70125A0E702259EE742
:10074C00000401400010024000080140000021108C
:10075C0000003110000032100000111000002210B7
:10076C000AB1016170470904FBE7000003682DE939
:10077C00F341DB07054610D42B689F075ED42B682A
:10078C00190700F195802B685A0700F1BF80EA69C0
:10079C00002A40F02D81002014E0904C636803F097
:1007AC000C03042B07D0636803F00C03082B0CD14B
:1007BC006368DE0309D523689C03DDD56B68002BC9
:1007CC00DAD1012002B0BDE8F0816B68B3F5803F4F
:1007DC0010D1236843F480332360FFF7F3FC064603
:1007EC0023689803C8D4FFF7EDFC801B6428F7D965
:1007FC000320E7E79BB9236823F480332360236845
:10080C0023F480232360FFF7DDFC0646236899035D
:10081C00B2D5FFF7D7FC801B6428F7D9E8E7B3F50E
:10082C00A02F236803D143F480232360D1E723F462
:10083C0080332360236823F48023CDE7674C6368FF
:10084C0013F00C0F07D0636803F00C03082B10D1C6
:10085C006368DA030DD423689B0702D52B69012B3F
:10086C00AFD123686A6923F0F80343EAC20323601B
:10087C0085E72A695A4B6AB101221A60FFF7A2FC7C
:10088C00064623689F07ECD4FFF79CFC801B0228CC
:10089C00F7D9ADE71A60FFF795FC06462368980771
:1008AC007FF56DAFFFF78EFC801B0228F6D99FE712
:1008BC00AA694A4C4B4BDAB101221A60FFF782FC51
:1008CC000646636A9B070DD54FF4FA52464B1B68DC
:1008DC00B3FBF2F3019300BF019B5A1E0192002B54
:1008EC00F9D150E7FFF76EFC801B0228E9D97FE7AE
:1008FC001A60FFF767FC0646636A9F077FF543AFF4
:10090C00FFF760FC801B0228F6D971E7334CE369D2
:10091C00D80024D40127E36943F08053E361E369F1
:10092C0003F080530093009B304E3368D90518D5E3
:10093C00EB68012B26D1236A43F001032362FFF7F6
:10094C0041FC41F288368046236A9B073FD5002F35
:10095C003FF41DAFE36923F08053E36117E70027F1
:10096C00E2E7336843F480733360FFF72BFC804677
:10097C003368DA05DCD4FFF725FCA0EB080064280B
:10098C00F6D935E7ABB9236A41F2883823F0010375
:10099C002362236A23F004032362FFF713FC064649
:1009AC00236A9807D3D5FFF70DFC801B4045F7D978
:1009BC001EE7052B236A03D143F004032362BAE735
:1009CC0023F001032362236A23F00403B6E7FFF745
:1009DC00F9FBA0EB0800B042B6D909E700100240C1
:1009EC000000424280044242080000200070004097
:1009FC00224C636803F00C03082B3FF4E2AE002397
:100A0C001F4E022A33602BD1FFF7DCFB074623680D
:100A1C0099011FD42B6AB3F5803F05D16268A96890
:100A2C0022F400320A436260696A62680B4322F462
:100A3C0074121343636001233360FFF7C3FB054655
:100A4C0023689A013FF5A7AEFFF7BCFB401B0228B9
:100A5C00F6D9CDE6FFF7B6FBC01B0228D7D9C7E6FF
:100A6C00FFF7B0FB054623689B017FF594AEFFF7BB
:100A7C00A9FB401B0228F6D9BAE600BF00100240C1
:100A8C006000424230B5194B87B002AC03F110053F
:100A9C00224618685968083303C2AB421446F7D192
:100AAC0001238DF80430022311498DF805304B6871
:100ABC0003F00C02082A17D1C3F3834206A80244A0
:100ACC00DB0312F8102C0CD54B680A48C3F34043D7
:100ADC00504306AA134413F8143CB0FBF3F007B0D0
:100AEC0030BD05485043FAE70248F8E7F81500080E
:100AFC000010024000127A0000093D004D4A2DE919
:100B0C00F0411368054603F007038B420E4628D3C9
:100B1C002A68910732D4D20738D4464A136803F0B6
:100B2C0007039E4273D32A68434C12F0040F79D109
:100B3C00130706D563682A6923F4605343EAC2039A
:100B4C006360FFF79FFF63683C4AC3F30313D35CF6
:100B5C00D8403B4B18600020FFF7F2FA0020BDE8AC
:100B6C00F081136823F007030B431360136803F041
:100B7C0007039942CCD00120BDE8F0812E49A8682A
:100B8C004B6823F0F00303434B60C4E76A682A4CBC
:100B9C00012A23681CD113F4003FECD0636841F2A6
:100BAC00883823F0030313436360FFF70BFB6B6878
:100BBC000746012B14D1636803F00C03042BACD053
:100BCC00FFF700FBC01B4045F5D90320BDE8F081C1
:100BDC00022A02D113F0007FDFE713F0020FDCE7EB
:100BEC00022B0FD1636803F00C03082B95D0FFF791
:100BFC00E9FAC01B4045F5D9E7E7FFF7E3FAC01B5C
:100C0C004045E2D8636813F00C0FF6D185E7136802
:100C1C0023F0070333431360136803F007039E426A
:100C2C00A9D180E76368E96823F4E0630B43636050
:100C3C007EE700BF002002400010024008160008AA
:100C4C0008000020014B1868704700BF0800002006
:100C5C00044B054A5B68C3F30223D35C034A106858
:100C6C00D8407047001002401816000808000020F9
:100C7C00044B054A5B68C3F3C223D35C034A106878
:100C8C00D8407047001002401816000808000020D9
:100C9C0003682DE9F341D907054620D5354CE369A6
:100CAC00DA0032D40127E36943F08053E361E3694E
:100CBC0003F080530193019B2F4E3368DB0526D53F
:100CCC00236A13F4407336D1236A6A6823F44073A1
:100CDC00134323621FB1E36923F08053E361286857
:100CEC00830706D5234AA968536823F440430B4372
:100CFC00536010F010001BD01E4AE96853680020A6
:100D0C0023F480030B43536012E00027D4E73368CD
:100D1C0043F480733360FFF755FA80463368D80587
:100D2C00CED4FFF74FFAA0EB08006428F6D90320C5
:100D3C0002B0BDE8F0816A6802F440729342C3D0FD
:100D4C0001200E4A236A1060002023F440711060C9
:100D5C002162D907B8D5FFF735FA41F28838064633
:100D6C00236A9A07B0D4FFF72DFA801B4045F7D9B8
:100D7C00DDE700BF0010024000700040400442421A
:100D8C000368DA6822F49072DA605A6922F0010280
:100D9C005A61202380F83A30704700002DE9F04763
:100DAC000568C2682B69016923F4405313432B6116
:100DBC008368EA680B43416922F4B05222F00C02BA
:100DCC000B431343EB606B69826923F44073134349
:100DDC006B61404B81469D424FF0190446D1FFF7A1
:100DEC0047FF04FB00F3D9F804604FF06408B60029
:100DFC00B3FBF6F3B3FBF8F31E01FFF739FF6043C7
:100E0C00D9F804309B00B0FBF3F7FFF731FF6043D8
:100E1C00D9F804309B00B0FBF3F3B3FBF8F308FBF9
:100E2C0013731B013233B3FBF8F303F0F007FFF736
:100E3C001FFF6043D9F804209200B0FBF2FAFFF7D1
:100E4C0017FF6043D9F804309B00B0FBF3F3B3FBFE
:100E5C00F8F308FB13A31B013233B3FBF8F303F0D5
:100E6C000F033B433344AB60BDE8F087FFF7F0FE64
:100E7C0004FB00F3D9F804604FF06408B600B3FB30
:100E8C00F6F3B3FBF8F31E01FFF7E2FE6043D9F86B
:100E9C0004309B00B0FBF3F7FFF7DAFE6043D9F8A0
:100EAC0004309B00B0FBF3F3B3FBF8F308FB1373B4
:100EBC001B013233B3FBF8F303F0F007FFF7C8FE66
:100ECC006043D9F804209200B0FBF2FAFFF7C0FEA1
:100EDC00B7E700BF0038014010B5044640B390F8A6
:100EEC00393003F0FF021BB980F8382000F0B8FA53
:100EFC002423226884F83930D368204623F4005325
:100F0C00D360FFF74BFF236800201A6922F490424C
:100F1C001A615A6922F02A025A61DA6842F40052C4
:100F2C00DA602023E06384F8393084F83A3010BD5D
:100F3C00012010BD90F83A30202B20D1E9B1E2B15C
:100F4C0090F83830012B1AD0C285828500232222DA
:100F5C00C36380F83A2002688162D16880F8383027
:100F6C0041F48071D1605169184641F00101516121
:100F7C00D16841F02001D1607047012070470220F8
:100F8C007047704790F83A3010B5222B36D18368F1
:100F9C000169B3F5805F0268836A23D15268E9B9AD
:100FAC00C2F3080223F8022B8362C48D013CA4B265
:100FBC00C4858CB90368DA6822F02002DA60DA683A
:100FCC0022F48072DA605A6922F001025A612023FD
:100FDC0080F83A3000F0E0F8002010BDD2B223F8CF
:100FEC00012BE1E721B9591C526881621A70DCE7C8
:100FFC005268591C816202F07F02F7E7022010BD93
:10100C0070470000036870B51A6804461607D96863
:10101C005D6907D196065AD58D0658D5BDE8704046
:10102C00FFF7B0BF15F0010502D111F4907F4ED03F
:10103C00D30705D5CE0542BFE36B43F00103E36351
:10104C00500704D51DB1E36B43F00203E363930730
:10105C0004D51DB1E36B43F00403E363160704D519
:10106C001DB1E36B43F00803E363E36B002B66D025
:10107C00950604D5880602D52046FFF783FF236822
:10108C0020465D69E26B110702D415F040051AD0B9
:10109C00FFF776FE23685A69520610D55A69606BC1
:1010AC0022F040025A6150B1254B4363FFF730FAEE
:1010BC00002844D0606BBDE87040436B1847204655
:1010CC00FFF79EFF70BDFFF79BFFE56370BD160633
:1010DC0027D50D0625D594F83920212A2FD1A268C1
:1010EC00B2F5805F226A17D11188C1F308015960EB
:1010FC00216979B902322262E28C013A92B2E2841D
:10110C00EAB9DA6822F08002DA60DA6842F040026A
:10111C00DA6070BD0132EEE7511C216212785A6020
:10112C00EAE750060BD54A0609D5DA68204622F0C4
:10113C004002DA60202384F83930FFF722FF70BDBB
:10114C005111000808B50023406AC385C384FFF71A
:10115C0057FF08BD08B5FFF735F80A4A0A4B0B498B
:10116C001860138808780A49B3F5FF7FC8549CBFF0
:10117C000133138005490122BDE808400548FFF7FB
:10118C00D9BE00BF2E000020600200202C000020E1
:10119C003000002064020020034B02681B689A4256
:1011AC0001D1FFF7D7BF7047640200204FF48033A2
:1011BC0010B594B001220B930021022412934FF42A
:1011CC00E0130AA80A920C910E9211941393FFF754
:1011DC00CDFA00B1FEE70F2305934FF4806307901F
:1011EC000990214605A806940893FFF787FC00B1E7
:1011FC00FEE74FF4004301A801940393FFF748FD69
:10120C00044600B1FEE7FFF71DFD4FF47A73B0FB07
:10121C00F3F0FFF755F90420FFF768F92246214651
:10122C004FF0FF30FFF70CF914B010BD00B589B0CA
:10123C00FEF7AAFFFFF7BAFF454B4FF4C0419A697E
:10124C00444842F010029A619A69012602F0100299
:10125C000092009A9A69032442F020029A619A69DA
:10126C00002502F020020192019A9A6942F00402D0
:10127C009A619A6902F004020292029A9A6942F007
:10128C0008029A619B69012203F008030393039BF4
:10129C00FFF766FA002202212F48FFF761FA0022BD
:1012AC0002212E48FFF75CFA4FF4C04304A92948E9
:1012BC000493079405960696FFF772F90594022499
:1012CC0004A925480496FFF76BF904A92248049455
:1012DC00079405960695FFF763F9204804A9049432
:1012EC00079405960695FFF75BF94FF4E1331C4C18
:1012FC001C4A204684E80C000C23A560E56025619F
:10130C006361A561E561FFF7E7FD00B1FEE7164DEE
:10131C00164BA8602B604FF46023E860686168602E
:10132C002846EB612E61FEF7F9FF00B1FEE70423BE
:10133C00069004A9284604930596FEF749FF00B1D0
:10134C00FEE732460A492046FFF7F4FDFEE700BFF0
:10135C00001002400010014000080140000C014048
:10136C0064020020004400403002002000240140B0
:10137C002C000020244B07B59A69032042F001028F
:10138C009A619A6902F001020092009ADA6942F0BD
:10139C008052DA61DB6903F080530193019BFFF704
:1013AC003DF800226FF00B001146FFF749F80022C0
:1013BC006FF00A001146FFF743F800226FF00900A6
:1013CC001146FFF73DF800226FF004001146FFF7BD
:1013DC0037F800226FF003001146FFF731F80022B6
:1013EC006FF001001146FFF72BF800224FF0FF3091
:1013FC001146FFF725F8054A536823F0E063536064
:10140C0003B05DF804FB00BF001002400000014077
:10141C0010B502680F4B86B09A4219D103F56C4394
:10142C009A69032442F400729A619B6902A903F43D
:10143C0000730193019BF023074802930394FFF779
:10144C00AFF8012302A9054802930394FFF7A8F80B
:10145C0006B010BD0024014000080140000C014002
:10146C0010B50268164B86B09A4226D103F5E633C6
:10147C00DA6902A942F40032DA61DB69114803F43B
:10148C0000330193019B0423029302230393032350
:10149C000593FFF785F8082300240DEB0301094899
:1014AC00029303940494FFF77BF8262022462146EE
:1014BC00FEF7C6FF2620FEF7F7FF06B010BD00BFF3
:1014CC0000440040000801407047FEE7FEE7FEE7DD
:1014DC00FEE770477047704708B5FEF767FEBDE83A
:1014EC000840FFF710B800000148FFF78BBD00BFA4
:1014FC00640200200F4B1A6842F001021A6059680E
:10150C000D4A0A405A601A6822F0847222F4803222
:10151C001A601A6822F480221A605A6822F4FE02B9
:10152C005A604FF41F029A604FF00062034B9A60AE
:10153C00704700BF001002400000FFF800ED00E013
:10154C00002103E00B4B5B58435004310A480B4B12
:10155C0042189A42F6D30A4A02E0002342F8043BAE
:10156C00084B9A42F9D3FFF7C5FF00F00FF8FFF7CD
:10157C005DFE704728160008000000200C000020BB
:10158C000C000020A8020020FEE7000070B500252A
:10159C000C4E0D4CA41BA410A54209D100F01AF856
:1015AC0000250A4E0A4CA41BA410A54205D170BDFF
:1015BC0056F8253098470135EEE756F82530984710
:1015CC000135F2E720160008201600082016000846
:1015DC0024160008F8B500BFF8BC08BC9E4670473E
:0C15EC00F8B500BFF8BC08BC9E46704774
:1015F80002030405060708090A0B0C0D0E0F10104C
:1016080000000000000000000102030406070809AA
:081618000000000001020304C0
:04162000310100088C
:041624000D010008AC
:0C162800010000001000000000A24A04B5
:040000050800154D8D
:00000001FF
